{
  "_format": "hh-sol-artifact-1",
  "contractName": "item",
  "sourceName": "contracts/Items.sol",
  "abi": [
    {
      "inputs": [],
      "stateMutability": "nonpayable",
      "type": "constructor"
    },
    {
      "inputs": [
        {
          "internalType": "string",
          "name": "name",
          "type": "string"
        },
        {
          "internalType": "string",
          "name": "description",
          "type": "string"
        },
        {
          "internalType": "string",
          "name": "imageHash",
          "type": "string"
        }
      ],
      "name": "addItem",
      "outputs": [],
      "stateMutability": "nonpayable",
      "type": "function"
    },
    {
      "inputs": [
        {
          "internalType": "uint256",
          "name": "id",
          "type": "uint256"
        },
        {
          "internalType": "uint256",
          "name": "_rating",
          "type": "uint256"
        },
        {
          "internalType": "string",
          "name": "_review",
          "type": "string"
        }
      ],
      "name": "addReview",
      "outputs": [],
      "stateMutability": "nonpayable",
      "type": "function"
    },
    {
      "inputs": [],
      "name": "addStandAtribute",
      "outputs": [],
      "stateMutability": "nonpayable",
      "type": "function"
    },
    {
      "inputs": [],
      "name": "generateRandom",
      "outputs": [
        {
          "internalType": "uint256",
          "name": "",
          "type": "uint256"
        }
      ],
      "stateMutability": "view",
      "type": "function"
    },
    {
      "inputs": [],
      "name": "getAllItemIds",
      "outputs": [
        {
          "internalType": "uint256[]",
          "name": "",
          "type": "uint256[]"
        }
      ],
      "stateMutability": "view",
      "type": "function"
    },
    {
      "inputs": [],
      "name": "getCreatedItemByAddress",
      "outputs": [
        {
          "components": [
            {
              "internalType": "address",
              "name": "owner",
              "type": "address"
            },
            {
              "internalType": "uint256",
              "name": "itemId",
              "type": "uint256"
            },
            {
              "internalType": "string",
              "name": "itemName",
              "type": "string"
            },
            {
              "internalType": "string",
              "name": "itemDescription",
              "type": "string"
            },
            {
              "internalType": "string",
              "name": "itemCoverHash",
              "type": "string"
            },
            {
              "internalType": "uint256",
              "name": "totalRating",
              "type": "uint256"
            },
            {
              "internalType": "uint256",
              "name": "totalCount",
              "type": "uint256"
            }
          ],
          "internalType": "struct item.Item[]",
          "name": "",
          "type": "tuple[]"
        }
      ],
      "stateMutability": "view",
      "type": "function"
    },
    {
      "inputs": [
        {
          "internalType": "uint256",
          "name": "id",
          "type": "uint256"
        }
      ],
      "name": "getItemById",
      "outputs": [
        {
          "components": [
            {
              "internalType": "address",
              "name": "owner",
              "type": "address"
            },
            {
              "internalType": "uint256",
              "name": "itemId",
              "type": "uint256"
            },
            {
              "internalType": "string",
              "name": "itemName",
              "type": "string"
            },
            {
              "internalType": "string",
              "name": "itemDescription",
              "type": "string"
            },
            {
              "internalType": "string",
              "name": "itemCoverHash",
              "type": "string"
            },
            {
              "internalType": "uint256",
              "name": "totalRating",
              "type": "uint256"
            },
            {
              "internalType": "uint256",
              "name": "totalCount",
              "type": "uint256"
            }
          ],
          "internalType": "struct item.Item",
          "name": "",
          "type": "tuple"
        }
      ],
      "stateMutability": "view",
      "type": "function"
    },
    {
      "inputs": [
        {
          "internalType": "uint256",
          "name": "stand",
          "type": "uint256"
        }
      ],
      "name": "getPersistence",
      "outputs": [
        {
          "internalType": "uint256",
          "name": "",
          "type": "uint256"
        }
      ],
      "stateMutability": "pure",
      "type": "function"
    },
    {
      "inputs": [
        {
          "internalType": "uint256",
          "name": "stand",
          "type": "uint256"
        }
      ],
      "name": "getPotential",
      "outputs": [
        {
          "internalType": "uint256",
          "name": "",
          "type": "uint256"
        }
      ],
      "stateMutability": "pure",
      "type": "function"
    },
    {
      "inputs": [
        {
          "internalType": "uint256",
          "name": "stand",
          "type": "uint256"
        }
      ],
      "name": "getPower",
      "outputs": [
        {
          "internalType": "uint256",
          "name": "",
          "type": "uint256"
        }
      ],
      "stateMutability": "pure",
      "type": "function"
    },
    {
      "inputs": [
        {
          "internalType": "uint256",
          "name": "stand",
          "type": "uint256"
        }
      ],
      "name": "getPrecision",
      "outputs": [
        {
          "internalType": "uint256",
          "name": "",
          "type": "uint256"
        }
      ],
      "stateMutability": "pure",
      "type": "function"
    },
    {
      "inputs": [
        {
          "internalType": "uint256",
          "name": "stand",
          "type": "uint256"
        }
      ],
      "name": "getRange",
      "outputs": [
        {
          "internalType": "uint256",
          "name": "",
          "type": "uint256"
        }
      ],
      "stateMutability": "pure",
      "type": "function"
    },
    {
      "inputs": [],
      "name": "getRatedItemByAddress",
      "outputs": [
        {
          "components": [
            {
              "internalType": "address",
              "name": "owner",
              "type": "address"
            },
            {
              "internalType": "uint256",
              "name": "itemId",
              "type": "uint256"
            },
            {
              "internalType": "string",
              "name": "itemName",
              "type": "string"
            },
            {
              "internalType": "string",
              "name": "itemDescription",
              "type": "string"
            },
            {
              "internalType": "string",
              "name": "itemCoverHash",
              "type": "string"
            },
            {
              "internalType": "uint256",
              "name": "totalRating",
              "type": "uint256"
            },
            {
              "internalType": "uint256",
              "name": "totalCount",
              "type": "uint256"
            }
          ],
          "internalType": "struct item.Item[]",
          "name": "",
          "type": "tuple[]"
        }
      ],
      "stateMutability": "view",
      "type": "function"
    },
    {
      "inputs": [
        {
          "internalType": "uint256",
          "name": "id",
          "type": "uint256"
        }
      ],
      "name": "getRatingListById",
      "outputs": [
        {
          "components": [
            {
              "internalType": "address",
              "name": "userAddress",
              "type": "address"
            },
            {
              "internalType": "string",
              "name": "reviewContent",
              "type": "string"
            },
            {
              "internalType": "uint256",
              "name": "ratingScore",
              "type": "uint256"
            },
            {
              "internalType": "uint256",
              "name": "date",
              "type": "uint256"
            }
          ],
          "internalType": "struct item.Rating[]",
          "name": "",
          "type": "tuple[]"
        }
      ],
      "stateMutability": "view",
      "type": "function"
    },
    {
      "inputs": [
        {
          "internalType": "uint256",
          "name": "stand",
          "type": "uint256"
        }
      ],
      "name": "getSpeed",
      "outputs": [
        {
          "internalType": "uint256",
          "name": "",
          "type": "uint256"
        }
      ],
      "stateMutability": "pure",
      "type": "function"
    },
    {
      "inputs": [],
      "name": "getStand",
      "outputs": [
        {
          "internalType": "uint256",
          "name": "",
          "type": "uint256"
        }
      ],
      "stateMutability": "view",
      "type": "function"
    },
    {
      "inputs": [],
      "name": "getTotalItems",
      "outputs": [
        {
          "internalType": "uint256",
          "name": "",
          "type": "uint256"
        }
      ],
      "stateMutability": "view",
      "type": "function"
    },
    {
      "inputs": [
        {
          "internalType": "uint256",
          "name": "id",
          "type": "uint256"
        }
      ],
      "name": "getTotalRatingCount",
      "outputs": [
        {
          "internalType": "uint256",
          "name": "",
          "type": "uint256"
        }
      ],
      "stateMutability": "view",
      "type": "function"
    },
    {
      "inputs": [
        {
          "internalType": "uint256",
          "name": "id",
          "type": "uint256"
        }
      ],
      "name": "getTotalRatingScore",
      "outputs": [
        {
          "internalType": "uint256",
          "name": "",
          "type": "uint256"
        }
      ],
      "stateMutability": "view",
      "type": "function"
    }
  ],
  "bytecode": "0x608060405234801561001057600080fd5b506000808190555061244d806100276000396000f3fe608060405234801561001057600080fd5b50600436106101215760003560e01c80634b93f753116100ad578063a8850c8711610071578063a8850c8714610356578063cc364f4814610374578063cd2f0710146103a4578063f26e8fd5146103d4578063ff376826146103de57610121565b80634b93f7531461028a5780634c573828146102ba5780634eb3a9a3146102ea578063729dfe401461031a5780637b20bfc41461033857610121565b8063310aac69116100f4578063310aac69146101d4578063339ba349146101f25780633e9e27aa1461020e5780633f2aa8881461022a578063434807ad1461025a57610121565b8063017fe8091461012657806302e4af0114610156578063125ccb6b14610174578063180e93ff146101a4575b600080fd5b610140600480360381019061013b91906118ce565b6103fc565b60405161014d919061190a565b60405180910390f35b61015e61040a565b60405161016b919061190a565b60405180910390f35b61018e600480360381019061018991906118ce565b61043d565b60405161019b9190611b33565b60405180910390f35b6101be60048036038101906101b991906118ce565b6105ae565b6040516101cb919061190a565b60405180910390f35b6101dc6105ce565b6040516101e9919061190a565b60405180910390f35b61020c60048036038101906102079190611c8a565b6105d7565b005b61022860048036038101906102239190611d31565b6107ae565b005b610244600480360381019061023f91906118ce565b610acf565b604051610251919061190a565b60405180910390f35b610274600480360381019061026f91906118ce565b610aef565b604051610281919061190a565b60405180910390f35b6102a4600480360381019061029f91906118ce565b610b01565b6040516102b1919061190a565b60405180910390f35b6102d460048036038101906102cf91906118ce565b610b13565b6040516102e1919061190a565b60405180910390f35b61030460048036038101906102ff91906118ce565b610b25565b604051610311919061190a565b60405180910390f35b610322610b37565b60405161032f9190611e4f565b60405180910390f35b610340610b8f565b60405161034d9190611fdd565b60405180910390f35b61035e610f24565b60405161036b9190611fdd565b60405180910390f35b61038e600480360381019061038991906118ce565b6112b9565b60405161039b919061190a565b60405180910390f35b6103be60048036038101906103b991906118ce565b6112cb565b6040516103cb91906120a9565b60405180910390f35b6103dc611522565b005b6103e6611747565b6040516103f3919061190a565b60405180910390f35b600061ffff82169050919050565b6000444260405160200161041f9291906120ec565b6040516020818303038152906040528051906020012060001c905090565b606060056000838152602001908152602001600020600001805480602002602001604051908101604052809291908181526020016000905b828210156105a357838290600052602060002090600402016040518060800160405290816000820160009054906101000a900473ffffffffffffffffffffffffffffffffffffffff1673ffffffffffffffffffffffffffffffffffffffff1673ffffffffffffffffffffffffffffffffffffffff1681526020016001820180546104fe90612147565b80601f016020809104026020016040519081016040528092919081815260200182805461052a90612147565b80156105775780601f1061054c57610100808354040283529160200191610577565b820191906000526020600020905b81548152906001019060200180831161055a57829003601f168201915b505050505081526020016002820154815260200160038201548152505081526020019060010190610475565b505050509050919050565b600060026000838152602001908152602001600020600501549050919050565b60008054905090565b6000805490506000808154809291906105ef906121a7565b919050555060018190806001815401808255809150506001900390600052602060002001600090919091909150556040518060e001604052803373ffffffffffffffffffffffffffffffffffffffff1681526020018281526020018581526020018481526020018381526020016000815260200160008152506002600083815260200190815260200160002060008201518160000160006101000a81548173ffffffffffffffffffffffffffffffffffffffff021916908373ffffffffffffffffffffffffffffffffffffffff1602179055506020820151816001015560408201518160020190805190602001906106e892919061178e565b50606082015181600301908051906020019061070592919061178e565b50608082015181600401908051906020019061072292919061178e565b5060a0820151816005015560c08201518160060155905050600460003373ffffffffffffffffffffffffffffffffffffffff1673ffffffffffffffffffffffffffffffffffffffff1681526020019081526020016000208190806001815401808255809150506001900390600052602060002001600090919091909150556107a8611522565b50505050565b6000821180156107bf575060058211155b6107fe576040517f08c379a00000000000000000000000000000000000000000000000000000000081526004016107f590612272565b60405180910390fd5b600015156005600085815260200190815260200160002060010160003373ffffffffffffffffffffffffffffffffffffffff1673ffffffffffffffffffffffffffffffffffffffff16815260200190815260200160002060009054906101000a900460ff161515146108a5576040517f08c379a000000000000000000000000000000000000000000000000000000000815260040161089c906122de565b60405180910390fd5b60016002600085815260200190815260200160002060060160008282546108cc91906122fe565b92505081905550816002600085815260200190815260200160002060050160008282546108f991906122fe565b9250508190555060016005600085815260200190815260200160002060010160003373ffffffffffffffffffffffffffffffffffffffff1673ffffffffffffffffffffffffffffffffffffffff16815260200190815260200160002060006101000a81548160ff0219169083151502179055506005600084815260200190815260200160002060000160405180608001604052803373ffffffffffffffffffffffffffffffffffffffff16815260200183815260200184815260200142815250908060018154018082558091505060019003906000526020600020906004020160009091909190915060008201518160000160006101000a81548173ffffffffffffffffffffffffffffffffffffffff021916908373ffffffffffffffffffffffffffffffffffffffff1602179055506020820151816001019080519060200190610a4592919061178e565b5060408201518160020155606082015181600301555050600360003373ffffffffffffffffffffffffffffffffffffffff1673ffffffffffffffffffffffffffffffffffffffff168152602001908152602001600020839080600181540180825580915050600190039060005260206000200160009091909190915055610aca611522565b505050565b600060026000838152602001908152602001600020600601549050919050565b600061ffff605083901c169050919050565b600061ffff601083901c169050919050565b600061ffff604083901c169050919050565b600061ffff603083901c169050919050565b60606001805480602002602001604051908101604052809291908181526020018280548015610b8557602002820191906000526020600020905b815481526020019060010190808311610b71575b5050505050905090565b60606000600460003373ffffffffffffffffffffffffffffffffffffffff1673ffffffffffffffffffffffffffffffffffffffff168152602001908152602001600020805480602002602001604051908101604052809291908181526020018280548015610c1c57602002820191906000526020600020905b815481526020019060010190808311610c08575b505050505090506000815167ffffffffffffffff811115610c4057610c3f611b5f565b5b604051908082528060200260200182016040528015610c7957816020015b610c66611814565b815260200190600190039081610c5e5790505b50905060005b8251811015610f1b5760026000848381518110610c9f57610c9e612354565b5b602002602001015181526020019081526020016000206040518060e00160405290816000820160009054906101000a900473ffffffffffffffffffffffffffffffffffffffff1673ffffffffffffffffffffffffffffffffffffffff1673ffffffffffffffffffffffffffffffffffffffff16815260200160018201548152602001600282018054610d3090612147565b80601f0160208091040260200160405190810160405280929190818152602001828054610d5c90612147565b8015610da95780601f10610d7e57610100808354040283529160200191610da9565b820191906000526020600020905b815481529060010190602001808311610d8c57829003601f168201915b50505050508152602001600382018054610dc290612147565b80601f0160208091040260200160405190810160405280929190818152602001828054610dee90612147565b8015610e3b5780601f10610e1057610100808354040283529160200191610e3b565b820191906000526020600020905b815481529060010190602001808311610e1e57829003601f168201915b50505050508152602001600482018054610e5490612147565b80601f0160208091040260200160405190810160405280929190818152602001828054610e8090612147565b8015610ecd5780601f10610ea257610100808354040283529160200191610ecd565b820191906000526020600020905b815481529060010190602001808311610eb057829003601f168201915b5050505050815260200160058201548152602001600682015481525050828281518110610efd57610efc612354565b5b60200260200101819052508080610f13906121a7565b915050610c7f565b50809250505090565b60606000600360003373ffffffffffffffffffffffffffffffffffffffff1673ffffffffffffffffffffffffffffffffffffffff168152602001908152602001600020805480602002602001604051908101604052809291908181526020018280548015610fb157602002820191906000526020600020905b815481526020019060010190808311610f9d575b505050505090506000815167ffffffffffffffff811115610fd557610fd4611b5f565b5b60405190808252806020026020018201604052801561100e57816020015b610ffb611814565b815260200190600190039081610ff35790505b50905060005b82518110156112b0576002600084838151811061103457611033612354565b5b602002602001015181526020019081526020016000206040518060e00160405290816000820160009054906101000a900473ffffffffffffffffffffffffffffffffffffffff1673ffffffffffffffffffffffffffffffffffffffff1673ffffffffffffffffffffffffffffffffffffffff168152602001600182015481526020016002820180546110c590612147565b80601f01602080910402602001604051908101604052809291908181526020018280546110f190612147565b801561113e5780601f106111135761010080835404028352916020019161113e565b820191906000526020600020905b81548152906001019060200180831161112157829003601f168201915b5050505050815260200160038201805461115790612147565b80601f016020809104026020016040519081016040528092919081815260200182805461118390612147565b80156111d05780601f106111a5576101008083540402835291602001916111d0565b820191906000526020600020905b8154815290600101906020018083116111b357829003601f168201915b505050505081526020016004820180546111e990612147565b80601f016020809104026020016040519081016040528092919081815260200182805461121590612147565b80156112625780601f1061123757610100808354040283529160200191611262565b820191906000526020600020905b81548152906001019060200180831161124557829003601f168201915b505050505081526020016005820154815260200160068201548152505082828151811061129257611291612354565b5b602002602001018190525080806112a8906121a7565b915050611014565b50809250505090565b600061ffff602083901c169050919050565b6112d3611814565b600260008381526020019081526020016000206040518060e00160405290816000820160009054906101000a900473ffffffffffffffffffffffffffffffffffffffff1673ffffffffffffffffffffffffffffffffffffffff1673ffffffffffffffffffffffffffffffffffffffff1681526020016001820154815260200160028201805461136190612147565b80601f016020809104026020016040519081016040528092919081815260200182805461138d90612147565b80156113da5780601f106113af576101008083540402835291602001916113da565b820191906000526020600020905b8154815290600101906020018083116113bd57829003601f168201915b505050505081526020016003820180546113f390612147565b80601f016020809104026020016040519081016040528092919081815260200182805461141f90612147565b801561146c5780601f106114415761010080835404028352916020019161146c565b820191906000526020600020905b81548152906001019060200180831161144f57829003601f168201915b5050505050815260200160048201805461148590612147565b80601f01602080910402602001604051908101604052809291908181526020018280546114b190612147565b80156114fe5780601f106114d3576101008083540402835291602001916114fe565b820191906000526020600020905b8154815290600101906020018083116114e157829003601f168201915b50505050508152602001600582015481526020016006820154815250509050919050565b60006006905060008167ffffffffffffffff81111561154457611543611b5f565b5b6040519080825280602002602001820160405280156115725781602001602082028036833780820191505090505b50905060008160008151811061158b5761158a612354565b5b6020026020010181815250506010816001815181106115ad576115ac612354565b5b6020026020010181815250506020816002815181106115cf576115ce612354565b5b6020026020010181815250506030816003815181106115f1576115f0612354565b5b60200260200101818152505060408160048151811061161357611612612354565b5b60200260200101818152505060508160058151811061163557611634612354565b5b60200260200101818152505060008261164c61040a565b61165691906123b2565b90506000611662611747565b9050600083838151811061167957611678612354565b5b60200260200101519050600061ffff8284901c16905061ffff81146116a75780806116a3906121a7565b9150505b8181901b905060006010836116bc91906122fe565b6010846116c991906122fe565b85901c901b90506000836101006116e091906123e3565b846101006116ee91906123e3565b86901b901c90508083831717600660003373ffffffffffffffffffffffffffffffffffffffff1673ffffffffffffffffffffffffffffffffffffffff168152602001908152602001600020819055505050505050505050565b6000600660003373ffffffffffffffffffffffffffffffffffffffff1673ffffffffffffffffffffffffffffffffffffffff16815260200190815260200160002054905090565b82805461179a90612147565b90600052602060002090601f0160209004810192826117bc5760008555611803565b82601f106117d557805160ff1916838001178555611803565b82800160010185558215611803579182015b828111156118025782518255916020019190600101906117e7565b5b5090506118109190611867565b5090565b6040518060e00160405280600073ffffffffffffffffffffffffffffffffffffffff1681526020016000815260200160608152602001606081526020016060815260200160008152602001600081525090565b5b80821115611880576000816000905550600101611868565b5090565b6000604051905090565b600080fd5b600080fd5b6000819050919050565b6118ab81611898565b81146118b657600080fd5b50565b6000813590506118c8816118a2565b92915050565b6000602082840312156118e4576118e361188e565b5b60006118f2848285016118b9565b91505092915050565b61190481611898565b82525050565b600060208201905061191f60008301846118fb565b92915050565b600081519050919050565b600082825260208201905092915050565b6000819050602082019050919050565b600073ffffffffffffffffffffffffffffffffffffffff82169050919050565b600061197c82611951565b9050919050565b61198c81611971565b82525050565b600081519050919050565b600082825260208201905092915050565b60005b838110156119cc5780820151818401526020810190506119b1565b838111156119db576000848401525b50505050565b6000601f19601f8301169050919050565b60006119fd82611992565b611a07818561199d565b9350611a178185602086016119ae565b611a20816119e1565b840191505092915050565b611a3481611898565b82525050565b6000608083016000830151611a526000860182611983565b5060208301518482036020860152611a6a82826119f2565b9150506040830151611a7f6040860182611a2b565b506060830151611a926060860182611a2b565b508091505092915050565b6000611aa98383611a3a565b905092915050565b6000602082019050919050565b6000611ac982611925565b611ad38185611930565b935083602082028501611ae585611941565b8060005b85811015611b215784840389528151611b028582611a9d565b9450611b0d83611ab1565b925060208a01995050600181019050611ae9565b50829750879550505050505092915050565b60006020820190508181036000830152611b4d8184611abe565b905092915050565b600080fd5b600080fd5b7f4e487b7100000000000000000000000000000000000000000000000000000000600052604160045260246000fd5b611b97826119e1565b810181811067ffffffffffffffff82111715611bb657611bb5611b5f565b5b80604052505050565b6000611bc9611884565b9050611bd58282611b8e565b919050565b600067ffffffffffffffff821115611bf557611bf4611b5f565b5b611bfe826119e1565b9050602081019050919050565b82818337600083830152505050565b6000611c2d611c2884611bda565b611bbf565b905082815260208101848484011115611c4957611c48611b5a565b5b611c54848285611c0b565b509392505050565b600082601f830112611c7157611c70611b55565b5b8135611c81848260208601611c1a565b91505092915050565b600080600060608486031215611ca357611ca261188e565b5b600084013567ffffffffffffffff811115611cc157611cc0611893565b5b611ccd86828701611c5c565b935050602084013567ffffffffffffffff811115611cee57611ced611893565b5b611cfa86828701611c5c565b925050604084013567ffffffffffffffff811115611d1b57611d1a611893565b5b611d2786828701611c5c565b9150509250925092565b600080600060608486031215611d4a57611d4961188e565b5b6000611d58868287016118b9565b9350506020611d69868287016118b9565b925050604084013567ffffffffffffffff811115611d8a57611d89611893565b5b611d9686828701611c5c565b9150509250925092565b600081519050919050565b600082825260208201905092915050565b6000819050602082019050919050565b6000611dd88383611a2b565b60208301905092915050565b6000602082019050919050565b6000611dfc82611da0565b611e068185611dab565b9350611e1183611dbc565b8060005b83811015611e42578151611e298882611dcc565b9750611e3483611de4565b925050600181019050611e15565b5085935050505092915050565b60006020820190508181036000830152611e698184611df1565b905092915050565b600081519050919050565b600082825260208201905092915050565b6000819050602082019050919050565b600060e083016000830151611eb56000860182611983565b506020830151611ec86020860182611a2b565b5060408301518482036040860152611ee082826119f2565b91505060608301518482036060860152611efa82826119f2565b91505060808301518482036080860152611f1482826119f2565b91505060a0830151611f2960a0860182611a2b565b5060c0830151611f3c60c0860182611a2b565b508091505092915050565b6000611f538383611e9d565b905092915050565b6000602082019050919050565b6000611f7382611e71565b611f7d8185611e7c565b935083602082028501611f8f85611e8d565b8060005b85811015611fcb5784840389528151611fac8582611f47565b9450611fb783611f5b565b925060208a01995050600181019050611f93565b50829750879550505050505092915050565b60006020820190508181036000830152611ff78184611f68565b905092915050565b600060e0830160008301516120176000860182611983565b50602083015161202a6020860182611a2b565b506040830151848203604086015261204282826119f2565b9150506060830151848203606086015261205c82826119f2565b9150506080830151848203608086015261207682826119f2565b91505060a083015161208b60a0860182611a2b565b5060c083015161209e60c0860182611a2b565b508091505092915050565b600060208201905081810360008301526120c38184611fff565b905092915050565b6000819050919050565b6120e66120e182611898565b6120cb565b82525050565b60006120f882856120d5565b60208201915061210882846120d5565b6020820191508190509392505050565b7f4e487b7100000000000000000000000000000000000000000000000000000000600052602260045260246000fd5b6000600282049050600182168061215f57607f821691505b60208210810361217257612171612118565b5b50919050565b7f4e487b7100000000000000000000000000000000000000000000000000000000600052601160045260246000fd5b60006121b282611898565b91507fffffffffffffffffffffffffffffffffffffffffffffffffffffffffffffffff82036121e4576121e3612178565b5b600182019050919050565b600082825260208201905092915050565b7f526174696e672073636f72652073686f7564206265747765656e203120616e6460008201527f20352e0000000000000000000000000000000000000000000000000000000000602082015250565b600061225c6023836121ef565b915061226782612200565b604082019050919050565b6000602082019050818103600083015261228b8161224f565b9050919050565b7f596f7520616c72656164792072617465642074686973206974656d2e00000000600082015250565b60006122c8601c836121ef565b91506122d382612292565b602082019050919050565b600060208201905081810360008301526122f7816122bb565b9050919050565b600061230982611898565b915061231483611898565b9250827fffffffffffffffffffffffffffffffffffffffffffffffffffffffffffffffff0382111561234957612348612178565b5b828201905092915050565b7f4e487b7100000000000000000000000000000000000000000000000000000000600052603260045260246000fd5b7f4e487b7100000000000000000000000000000000000000000000000000000000600052601260045260246000fd5b60006123bd82611898565b91506123c883611898565b9250826123d8576123d7612383565b5b828206905092915050565b60006123ee82611898565b91506123f983611898565b92508282101561240c5761240b612178565b5b82820390509291505056fea26469706673582212208a4f5eb2b34cad903318eb5486ebccd5252c4a042821b1ab380078a0922089c764736f6c634300080d0033",
  "linkReferences": {},
  "deployedLinkReferences": {}
}